{
  "_format": "hh-sol-artifact-1",
  "contractName": "RiftySummonerCard",
  "sourceName": "contracts/RiftySummonerCard.sol",
  "abi": [
    {
      "inputs": [],
      "stateMutability": "nonpayable",
      "type": "constructor"
    },
    {
      "inputs": [],
      "name": "ERC721EnumerableForbiddenBatchMint",
      "type": "error"
    },
    {
      "inputs": [
        {
          "internalType": "address",
          "name": "sender",
          "type": "address"
        },
        {
          "internalType": "uint256",
          "name": "tokenId",
          "type": "uint256"
        },
        {
          "internalType": "address",
          "name": "owner",
          "type": "address"
        }
      ],
      "name": "ERC721IncorrectOwner",
      "type": "error"
    },
    {
      "inputs": [
        {
          "internalType": "address",
          "name": "operator",
          "type": "address"
        },
        {
          "internalType": "uint256",
          "name": "tokenId",
          "type": "uint256"
        }
      ],
      "name": "ERC721InsufficientApproval",
      "type": "error"
    },
    {
      "inputs": [
        {
          "internalType": "address",
          "name": "approver",
          "type": "address"
        }
      ],
      "name": "ERC721InvalidApprover",
      "type": "error"
    },
    {
      "inputs": [
        {
          "internalType": "address",
          "name": "operator",
          "type": "address"
        }
      ],
      "name": "ERC721InvalidOperator",
      "type": "error"
    },
    {
      "inputs": [
        {
          "internalType": "address",
          "name": "owner",
          "type": "address"
        }
      ],
      "name": "ERC721InvalidOwner",
      "type": "error"
    },
    {
      "inputs": [
        {
          "internalType": "address",
          "name": "receiver",
          "type": "address"
        }
      ],
      "name": "ERC721InvalidReceiver",
      "type": "error"
    },
    {
      "inputs": [
        {
          "internalType": "address",
          "name": "sender",
          "type": "address"
        }
      ],
      "name": "ERC721InvalidSender",
      "type": "error"
    },
    {
      "inputs": [
        {
          "internalType": "uint256",
          "name": "tokenId",
          "type": "uint256"
        }
      ],
      "name": "ERC721NonexistentToken",
      "type": "error"
    },
    {
      "inputs": [
        {
          "internalType": "address",
          "name": "owner",
          "type": "address"
        },
        {
          "internalType": "uint256",
          "name": "index",
          "type": "uint256"
        }
      ],
      "name": "ERC721OutOfBoundsIndex",
      "type": "error"
    },
    {
      "inputs": [
        {
          "internalType": "address",
          "name": "owner",
          "type": "address"
        }
      ],
      "name": "OwnableInvalidOwner",
      "type": "error"
    },
    {
      "inputs": [
        {
          "internalType": "address",
          "name": "account",
          "type": "address"
        }
      ],
      "name": "OwnableUnauthorizedAccount",
      "type": "error"
    },
    {
      "anonymous": false,
      "inputs": [
        {
          "indexed": true,
          "internalType": "address",
          "name": "owner",
          "type": "address"
        },
        {
          "indexed": true,
          "internalType": "address",
          "name": "approved",
          "type": "address"
        },
        {
          "indexed": true,
          "internalType": "uint256",
          "name": "tokenId",
          "type": "uint256"
        }
      ],
      "name": "Approval",
      "type": "event"
    },
    {
      "anonymous": false,
      "inputs": [
        {
          "indexed": true,
          "internalType": "address",
          "name": "owner",
          "type": "address"
        },
        {
          "indexed": true,
          "internalType": "address",
          "name": "operator",
          "type": "address"
        },
        {
          "indexed": false,
          "internalType": "bool",
          "name": "approved",
          "type": "bool"
        }
      ],
      "name": "ApprovalForAll",
      "type": "event"
    },
    {
      "anonymous": false,
      "inputs": [
        {
          "indexed": true,
          "internalType": "address",
          "name": "previousOwner",
          "type": "address"
        },
        {
          "indexed": true,
          "internalType": "address",
          "name": "newOwner",
          "type": "address"
        }
      ],
      "name": "OwnershipTransferred",
      "type": "event"
    },
    {
      "anonymous": false,
      "inputs": [
        {
          "indexed": true,
          "internalType": "address",
          "name": "from",
          "type": "address"
        },
        {
          "indexed": true,
          "internalType": "address",
          "name": "to",
          "type": "address"
        },
        {
          "indexed": true,
          "internalType": "uint256",
          "name": "tokenId",
          "type": "uint256"
        }
      ],
      "name": "Transfer",
      "type": "event"
    },
    {
      "inputs": [
        {
          "internalType": "address",
          "name": "to",
          "type": "address"
        },
        {
          "internalType": "uint256",
          "name": "tokenId",
          "type": "uint256"
        }
      ],
      "name": "approve",
      "outputs": [],
      "stateMutability": "nonpayable",
      "type": "function"
    },
    {
      "inputs": [
        {
          "internalType": "address",
          "name": "owner",
          "type": "address"
        }
      ],
      "name": "balanceOf",
      "outputs": [
        {
          "internalType": "uint256",
          "name": "",
          "type": "uint256"
        }
      ],
      "stateMutability": "view",
      "type": "function"
    },
    {
      "inputs": [
        {
          "internalType": "uint256",
          "name": "",
          "type": "uint256"
        }
      ],
      "name": "cards",
      "outputs": [
        {
          "internalType": "string",
          "name": "image",
          "type": "string"
        },
        {
          "internalType": "enum RiftySummonerCard.CardAttribute",
          "name": "attribute",
          "type": "uint8"
        },
        {
          "internalType": "uint8",
          "name": "originRank",
          "type": "uint8"
        },
        {
          "internalType": "uint256",
          "name": "originSkillId",
          "type": "uint256"
        },
        {
          "internalType": "uint8",
          "name": "originSkillLevel",
          "type": "uint8"
        },
        {
          "internalType": "bool",
          "name": "obtainable",
          "type": "bool"
        },
        {
          "components": [
            {
              "internalType": "uint256",
              "name": "hp",
              "type": "uint256"
            },
            {
              "internalType": "uint256",
              "name": "def",
              "type": "uint256"
            },
            {
              "internalType": "uint256",
              "name": "atk",
              "type": "uint256"
            },
            {
              "internalType": "uint256",
              "name": "ats",
              "type": "uint256"
            },
            {
              "internalType": "uint256",
              "name": "res",
              "type": "uint256"
            },
            {
              "internalType": "uint256",
              "name": "acc",
              "type": "uint256"
            },
            {
              "internalType": "uint256",
              "name": "crc",
              "type": "uint256"
            },
            {
              "internalType": "uint256",
              "name": "crd",
              "type": "uint256"
            }
          ],
          "internalType": "struct RiftySummonerCard.CardStat",
          "name": "stat",
          "type": "tuple"
        }
      ],
      "stateMutability": "view",
      "type": "function"
    },
    {
      "inputs": [
        {
          "internalType": "uint256",
          "name": "_id",
          "type": "uint256"
        },
        {
          "internalType": "string",
          "name": "_image",
          "type": "string"
        },
        {
          "internalType": "enum RiftySummonerCard.CardAttribute",
          "name": "_attribute",
          "type": "uint8"
        },
        {
          "internalType": "uint8",
          "name": "_originRank",
          "type": "uint8"
        },
        {
          "internalType": "uint256",
          "name": "_originSkillId",
          "type": "uint256"
        },
        {
          "internalType": "uint8",
          "name": "_originSkillLevel",
          "type": "uint8"
        },
        {
          "internalType": "bool",
          "name": "_obtainable",
          "type": "bool"
        },
        {
          "internalType": "uint256[]",
          "name": "_tribes",
          "type": "uint256[]"
        },
        {
          "internalType": "uint256[8]",
          "name": "_stat",
          "type": "uint256[8]"
        }
      ],
      "name": "createCard",
      "outputs": [],
      "stateMutability": "nonpayable",
      "type": "function"
    },
    {
      "inputs": [
        {
          "internalType": "uint256",
          "name": "_id",
          "type": "uint256"
        },
        {
          "internalType": "string",
          "name": "_image",
          "type": "string"
        }
      ],
      "name": "createTribe",
      "outputs": [],
      "stateMutability": "nonpayable",
      "type": "function"
    },
    {
      "inputs": [
        {
          "internalType": "uint256",
          "name": "tokenId",
          "type": "uint256"
        }
      ],
      "name": "getApproved",
      "outputs": [
        {
          "internalType": "address",
          "name": "",
          "type": "address"
        }
      ],
      "stateMutability": "view",
      "type": "function"
    },
    {
      "inputs": [
        {
          "internalType": "uint256",
          "name": "_cardId",
          "type": "uint256"
        },
        {
          "internalType": "string",
          "name": "_lang",
          "type": "string"
        }
      ],
      "name": "getCardName",
      "outputs": [
        {
          "internalType": "string",
          "name": "",
          "type": "string"
        }
      ],
      "stateMutability": "view",
      "type": "function"
    },
    {
      "inputs": [
        {
          "internalType": "uint256",
          "name": "_id",
          "type": "uint256"
        }
      ],
      "name": "getNFT",
      "outputs": [
        {
          "internalType": "uint256",
          "name": "",
          "type": "uint256"
        },
        {
          "internalType": "uint8",
          "name": "",
          "type": "uint8"
        },
        {
          "internalType": "uint8",
          "name": "",
          "type": "uint8"
        },
        {
          "internalType": "uint256[5]",
          "name": "",
          "type": "uint256[5]"
        },
        {
          "internalType": "uint256",
          "name": "",
          "type": "uint256"
        },
        {
          "internalType": "string",
          "name": "",
          "type": "string"
        },
        {
          "internalType": "enum RiftySummonerCard.CardAttribute",
          "name": "",
          "type": "uint8"
        },
        {
          "internalType": "uint8",
          "name": "",
          "type": "uint8"
        },
        {
          "internalType": "uint256",
          "name": "",
          "type": "uint256"
        },
        {
          "internalType": "uint8",
          "name": "",
          "type": "uint8"
        },
        {
          "internalType": "bool",
          "name": "",
          "type": "bool"
        },
        {
          "internalType": "uint256[]",
          "name": "",
          "type": "uint256[]"
        }
      ],
      "stateMutability": "view",
      "type": "function"
    },
    {
      "inputs": [
        {
          "internalType": "address",
          "name": "owner",
          "type": "address"
        }
      ],
      "name": "getOwnedNFTs",
      "outputs": [
        {
          "internalType": "uint256[]",
          "name": "",
          "type": "uint256[]"
        }
      ],
      "stateMutability": "view",
      "type": "function"
    },
    {
      "inputs": [
        {
          "internalType": "address",
          "name": "owner",
          "type": "address"
        },
        {
          "internalType": "address",
          "name": "operator",
          "type": "address"
        }
      ],
      "name": "isApprovedForAll",
      "outputs": [
        {
          "internalType": "bool",
          "name": "",
          "type": "bool"
        }
      ],
      "stateMutability": "view",
      "type": "function"
    },
    {
      "inputs": [
        {
          "internalType": "address",
          "name": "_to",
          "type": "address"
        },
        {
          "internalType": "string",
          "name": "_seed",
          "type": "string"
        }
      ],
      "name": "mintCard",
      "outputs": [
        {
          "internalType": "uint256",
          "name": "",
          "type": "uint256"
        }
      ],
      "stateMutability": "nonpayable",
      "type": "function"
    },
    {
      "inputs": [],
      "name": "name",
      "outputs": [
        {
          "internalType": "string",
          "name": "",
          "type": "string"
        }
      ],
      "stateMutability": "view",
      "type": "function"
    },
    {
      "inputs": [
        {
          "internalType": "uint256",
          "name": "",
          "type": "uint256"
        }
      ],
      "name": "nfts",
      "outputs": [
        {
          "internalType": "uint256",
          "name": "card_id",
          "type": "uint256"
        },
        {
          "internalType": "uint8",
          "name": "level",
          "type": "uint8"
        },
        {
          "internalType": "uint8",
          "name": "rank",
          "type": "uint8"
        },
        {
          "internalType": "uint256",
          "name": "growthType",
          "type": "uint256"
        }
      ],
      "stateMutability": "view",
      "type": "function"
    },
    {
      "inputs": [],
      "name": "owner",
      "outputs": [
        {
          "internalType": "address",
          "name": "",
          "type": "address"
        }
      ],
      "stateMutability": "view",
      "type": "function"
    },
    {
      "inputs": [
        {
          "internalType": "uint256",
          "name": "tokenId",
          "type": "uint256"
        }
      ],
      "name": "ownerOf",
      "outputs": [
        {
          "internalType": "address",
          "name": "",
          "type": "address"
        }
      ],
      "stateMutability": "view",
      "type": "function"
    },
    {
      "inputs": [],
      "name": "renounceOwnership",
      "outputs": [],
      "stateMutability": "nonpayable",
      "type": "function"
    },
    {
      "inputs": [
        {
          "internalType": "address",
          "name": "from",
          "type": "address"
        },
        {
          "internalType": "address",
          "name": "to",
          "type": "address"
        },
        {
          "internalType": "uint256",
          "name": "tokenId",
          "type": "uint256"
        }
      ],
      "name": "safeTransferFrom",
      "outputs": [],
      "stateMutability": "nonpayable",
      "type": "function"
    },
    {
      "inputs": [
        {
          "internalType": "address",
          "name": "from",
          "type": "address"
        },
        {
          "internalType": "address",
          "name": "to",
          "type": "address"
        },
        {
          "internalType": "uint256",
          "name": "tokenId",
          "type": "uint256"
        },
        {
          "internalType": "bytes",
          "name": "data",
          "type": "bytes"
        }
      ],
      "name": "safeTransferFrom",
      "outputs": [],
      "stateMutability": "nonpayable",
      "type": "function"
    },
    {
      "inputs": [
        {
          "internalType": "address",
          "name": "operator",
          "type": "address"
        },
        {
          "internalType": "bool",
          "name": "approved",
          "type": "bool"
        }
      ],
      "name": "setApprovalForAll",
      "outputs": [],
      "stateMutability": "nonpayable",
      "type": "function"
    },
    {
      "inputs": [
        {
          "internalType": "uint256",
          "name": "_cardId",
          "type": "uint256"
        },
        {
          "internalType": "string",
          "name": "_lang",
          "type": "string"
        },
        {
          "internalType": "string",
          "name": "_name",
          "type": "string"
        }
      ],
      "name": "setCardName",
      "outputs": [],
      "stateMutability": "nonpayable",
      "type": "function"
    },
    {
      "inputs": [
        {
          "internalType": "bytes4",
          "name": "interfaceId",
          "type": "bytes4"
        }
      ],
      "name": "supportsInterface",
      "outputs": [
        {
          "internalType": "bool",
          "name": "",
          "type": "bool"
        }
      ],
      "stateMutability": "view",
      "type": "function"
    },
    {
      "inputs": [],
      "name": "symbol",
      "outputs": [
        {
          "internalType": "string",
          "name": "",
          "type": "string"
        }
      ],
      "stateMutability": "view",
      "type": "function"
    },
    {
      "inputs": [
        {
          "internalType": "uint256",
          "name": "index",
          "type": "uint256"
        }
      ],
      "name": "tokenByIndex",
      "outputs": [
        {
          "internalType": "uint256",
          "name": "",
          "type": "uint256"
        }
      ],
      "stateMutability": "view",
      "type": "function"
    },
    {
      "inputs": [
        {
          "internalType": "address",
          "name": "owner",
          "type": "address"
        },
        {
          "internalType": "uint256",
          "name": "index",
          "type": "uint256"
        }
      ],
      "name": "tokenOfOwnerByIndex",
      "outputs": [
        {
          "internalType": "uint256",
          "name": "",
          "type": "uint256"
        }
      ],
      "stateMutability": "view",
      "type": "function"
    },
    {
      "inputs": [
        {
          "internalType": "uint256",
          "name": "tokenId",
          "type": "uint256"
        }
      ],
      "name": "tokenURI",
      "outputs": [
        {
          "internalType": "string",
          "name": "",
          "type": "string"
        }
      ],
      "stateMutability": "view",
      "type": "function"
    },
    {
      "inputs": [],
      "name": "totalSupply",
      "outputs": [
        {
          "internalType": "uint256",
          "name": "",
          "type": "uint256"
        }
      ],
      "stateMutability": "view",
      "type": "function"
    },
    {
      "inputs": [
        {
          "internalType": "address",
          "name": "from",
          "type": "address"
        },
        {
          "internalType": "address",
          "name": "to",
          "type": "address"
        },
        {
          "internalType": "uint256",
          "name": "tokenId",
          "type": "uint256"
        }
      ],
      "name": "transferFrom",
      "outputs": [],
      "stateMutability": "nonpayable",
      "type": "function"
    },
    {
      "inputs": [
        {
          "internalType": "address",
          "name": "newOwner",
          "type": "address"
        }
      ],
      "name": "transferOwnership",
      "outputs": [],
      "stateMutability": "nonpayable",
      "type": "function"
    },
    {
      "inputs": [
        {
          "internalType": "uint256",
          "name": "",
          "type": "uint256"
        }
      ],
      "name": "tribes",
      "outputs": [
        {
          "internalType": "string",
          "name": "",
          "type": "string"
        }
      ],
      "stateMutability": "view",
      "type": "function"
    }
  ],
  "bytecode": "0x608060405234801561001057600080fd5b50336040518060400160405280601181526020017f526966747953756d6d6f6e6572436172640000000000000000000000000000008152506040518060400160405280600381526020017f5253430000000000000000000000000000000000000000000000000000000000815250816000908161008d9190610445565b50806001908161009d9190610445565b505050600073ffffffffffffffffffffffffffffffffffffffff168173ffffffffffffffffffffffffffffffffffffffff16036101125760006040517f1e4fbdf70000000000000000000000000000000000000000000000000000000081526004016101099190610558565b60405180910390fd5b6101218161012f60201b60201c565b506001600f81905550610573565b6000600a60009054906101000a900473ffffffffffffffffffffffffffffffffffffffff16905081600a60006101000a81548173ffffffffffffffffffffffffffffffffffffffff021916908373ffffffffffffffffffffffffffffffffffffffff1602179055508173ffffffffffffffffffffffffffffffffffffffff168173ffffffffffffffffffffffffffffffffffffffff167f8be0079c531659141344cd1fd0a4f28419497f9722a3daafe3b4186f6b6457e060405160405180910390a35050565b600081519050919050565b7f4e487b7100000000000000000000000000000000000000000000000000000000600052604160045260246000fd5b7f4e487b7100000000000000000000000000000000000000000000000000000000600052602260045260246000fd5b6000600282049050600182168061027657607f821691505b6020821081036102895761028861022f565b5b50919050565b60008190508160005260206000209050919050565b60006020601f8301049050919050565b600082821b905092915050565b6000600883026102f17fffffffffffffffffffffffffffffffffffffffffffffffffffffffffffffffff826102b4565b6102fb86836102b4565b95508019841693508086168417925050509392505050565b6000819050919050565b6000819050919050565b600061034261033d61033884610313565b61031d565b610313565b9050919050565b6000819050919050565b61035c83610327565b61037061036882610349565b8484546102c1565b825550505050565b600090565b610385610378565b610390818484610353565b505050565b5b818110156103b4576103a960008261037d565b600181019050610396565b5050565b601f8211156103f9576103ca8161028f565b6103d3846102a4565b810160208510156103e2578190505b6103f66103ee856102a4565b830182610395565b50505b505050565b600082821c905092915050565b600061041c600019846008026103fe565b1980831691505092915050565b6000610435838361040b565b9150826002028217905092915050565b61044e826101f5565b67ffffffffffffffff81111561046757610466610200565b5b610471825461025e565b61047c8282856103b8565b600060209050601f8311600181146104af576000841561049d578287015190505b6104a78582610429565b86555061050f565b601f1984166104bd8661028f565b60005b828110156104e5578489015182556001820191506020850194506020810190506104c0565b8683101561050257848901516104fe601f89168261040b565b8355505b6001600288020188555050505b505050505050565b600073ffffffffffffffffffffffffffffffffffffffff82169050919050565b600061054282610517565b9050919050565b61055281610537565b82525050565b600060208201905061056d6000830184610549565b92915050565b614a8d806105826000396000f3fe608060405234801561001057600080fd5b50600436106101cf5760003560e01c80636d71769e11610104578063a464c1e5116100a2578063cd7e53cc11610071578063cd7e53cc1461059e578063e985e9c5146105ce578063f1258648146105fe578063f2fde38b1461061a576101cf565b8063a464c1e514610506578063b88d4fde14610536578063c33eb4b214610552578063c87b56dd1461056e576101cf565b80638da5cb5b116100de5780638da5cb5b146104785780638dc107681461049657806395d89b41146104cc578063a22cb465146104ea576101cf565b80636d71769e1461040e57806370a082311461043e578063715018a61461046e576101cf565b806323b872dd1161017157806342842e0e1161014b57806342842e0e146103575780634f6ccce714610373578063576f7ea7146103a35780636352211e146103de576101cf565b806323b872dd146102d8578063265aa621146102f45780632f745c5914610327576101cf565b8063081812fc116101ad578063081812fc1461023e578063095ea7b31461026e57806318148f1b1461028a57806318160ddd146102ba576101cf565b806301ffc9a7146101d45780630382de9f1461020457806306fdde0314610220575b600080fd5b6101ee60048036038101906101e9919061327f565b610636565b6040516101fb91906132c7565b60405180910390f35b61021e6004803603810190610219919061345e565b6106b0565b005b610228610768565b6040516102359190613539565b60405180910390f35b6102586004803603810190610253919061355b565b6107fa565b60405161026591906135c9565b60405180910390f35b61028860048036038101906102839190613610565b610816565b005b6102a4600480360381019061029f9190613650565b61082c565b6040516102b1919061373b565b60405180910390f35b6102c26108d4565b6040516102cf919061376c565b60405180910390f35b6102f260048036038101906102ed9190613787565b6108e1565b005b61030e6004803603810190610309919061355b565b6109e3565b60405161031e94939291906137f6565b60405180910390f35b610341600480360381019061033c9190613610565b610a2d565b60405161034e919061376c565b60405180910390f35b610371600480360381019061036c9190613787565b610ad6565b005b61038d6004803603810190610388919061355b565b610af6565b60405161039a919061376c565b60405180910390f35b6103bd60048036038101906103b8919061355b565b610b6c565b6040516103d59c9b9a99989796959493929190613936565b60405180910390f35b6103f860048036038101906103f3919061355b565b610d86565b60405161040591906135c9565b60405180910390f35b6104286004803603810190610423919061345e565b610d98565b6040516104359190613539565b60405180910390f35b61045860048036038101906104539190613650565b610ec2565b604051610465919061376c565b60405180910390f35b610476610f7c565b005b610480610f90565b60405161048d91906135c9565b60405180910390f35b6104b060048036038101906104ab919061355b565b610fba565b6040516104c39796959493929190613aa4565b60405180910390f35b6104d4611113565b6040516104e19190613539565b60405180910390f35b61050460048036038101906104ff9190613b47565b6111a5565b005b610520600480360381019061051b919061355b565b6111bb565b60405161052d9190613539565b60405180910390f35b610550600480360381019061054b9190613c28565b61125b565b005b61056c60048036038101906105679190613e75565b611280565b005b6105886004803603810190610583919061355b565b611605565b6040516105959190613539565b60405180910390f35b6105b860048036038101906105b39190613f77565b61166e565b6040516105c5919061376c565b60405180910390f35b6105e860048036038101906105e39190613fd3565b611c64565b6040516105f591906132c7565b60405180910390f35b61061860048036038101906106139190614013565b611cf8565b005b610634600480360381019061062f9190613650565b611daa565b005b60007f780e9d63000000000000000000000000000000000000000000000000000000007bffffffffffffffffffffffffffffffffffffffffffffffffffffffff1916827bffffffffffffffffffffffffffffffffffffffffffffffffffffffff191614806106a957506106a882611e30565b5b9050919050565b6106b8611f12565b6000600e600084815260200190815260200160002080546106d8906140cd565b90501461071a576040517f08c379a00000000000000000000000000000000000000000000000000000000081526004016107119061414a565b60405180910390fd5b80600e6000848152602001908152602001600020908161073a9190614316565b50600d8290806001815401808255809150506001900390600052602060002001600090919091909150555050565b606060008054610777906140cd565b80601f01602080910402602001604051908101604052809291908181526020018280546107a3906140cd565b80156107f05780601f106107c5576101008083540402835291602001916107f0565b820191906000526020600020905b8154815290600101906020018083116107d357829003601f168201915b5050505050905090565b600061080582611f99565b5061080f82612021565b9050919050565b610828828261082361205e565b612066565b5050565b6060600061083983610ec2565b905060008167ffffffffffffffff81111561085757610856613333565b5b6040519080825280602002602001820160405280156108855781602001602082028036833780820191505090505b50905060005b828110156108c95761089d8582610a2d565b8282815181106108b0576108af6143e8565b5b602002602001018181525050808060010191505061088b565b508092505050919050565b6000600880549050905090565b600073ffffffffffffffffffffffffffffffffffffffff168273ffffffffffffffffffffffffffffffffffffffff16036109535760006040517f64a0ae9200000000000000000000000000000000000000000000000000000000815260040161094a91906135c9565b60405180910390fd5b6000610967838361096261205e565b612078565b90508373ffffffffffffffffffffffffffffffffffffffff168173ffffffffffffffffffffffffffffffffffffffff16146109dd578382826040517f64283d7b0000000000000000000000000000000000000000000000000000000081526004016109d493929190614417565b60405180910390fd5b50505050565b60106020528060005260406000206000915090508060000154908060010160009054906101000a900460ff16908060010160019054906101000a900460ff16908060070154905084565b6000610a3883610ec2565b8210610a7d5782826040517fa57d13dc000000000000000000000000000000000000000000000000000000008152600401610a7492919061444e565b60405180910390fd5b600660008473ffffffffffffffffffffffffffffffffffffffff1673ffffffffffffffffffffffffffffffffffffffff168152602001908152602001600020600083815260200190815260200160002054905092915050565b610af18383836040518060200160405280600081525061125b565b505050565b6000610b006108d4565b8210610b46576000826040517fa57d13dc000000000000000000000000000000000000000000000000000000008152600401610b3d92919061444e565b60405180910390fd5b60088281548110610b5a57610b596143e8565b5b90600052602060002001549050919050565b6000806000610b79613147565b60006060600080600080600060606000601060008f815260200190815260200160002090506000600c600083600001548152602001908152602001600020905081600001548260010160009054906101000a900460ff168360010160019054906101000a900460ff16846002018560070154856000018660010160009054906101000a900460ff168760010160019054906101000a900460ff1688600201548960030160009054906101000a900460ff168a60030160019054906101000a900460ff168b60040188600580602002604051908101604052809291908260058015610c78576020028201915b815481526020019060010190808311610c64575b50505050509850868054610c8b906140cd565b80601f0160208091040260200160405190810160405280929190818152602001828054610cb7906140cd565b8015610d045780601f10610cd957610100808354040283529160200191610d04565b820191906000526020600020905b815481529060010190602001808311610ce757829003601f168201915b5050505050965080805480602002602001604051908101604052809291908181526020018280548015610d5657602002820191906000526020600020905b815481526020019060010190808311610d42575b505050505090509d509d509d509d509d509d509d509d509d509d509d509d50505091939597999b5091939597999b565b6000610d9182611f99565b9050919050565b60606000600c60008581526020019081526020016000206000018054610dbd906140cd565b905003610dff576040517f08c379a0000000000000000000000000000000000000000000000000000000008152600401610df6906144c3565b60405180910390fd5b600c600084815260200190815260200160002060050182604051610e23919061451f565b90815260200160405180910390208054610e3c906140cd565b80601f0160208091040260200160405190810160405280929190818152602001828054610e68906140cd565b8015610eb55780601f10610e8a57610100808354040283529160200191610eb5565b820191906000526020600020905b815481529060010190602001808311610e9857829003601f168201915b5050505050905092915050565b60008073ffffffffffffffffffffffffffffffffffffffff168273ffffffffffffffffffffffffffffffffffffffff1603610f355760006040517f89c62b64000000000000000000000000000000000000000000000000000000008152600401610f2c91906135c9565b60405180910390fd5b600360008373ffffffffffffffffffffffffffffffffffffffff1673ffffffffffffffffffffffffffffffffffffffff168152602001908152602001600020549050919050565b610f84611f12565b610f8e6000612195565b565b6000600a60009054906101000a900473ffffffffffffffffffffffffffffffffffffffff16905090565b600c602052806000526040600020600091509050806000018054610fdd906140cd565b80601f0160208091040260200160405190810160405280929190818152602001828054611009906140cd565b80156110565780601f1061102b57610100808354040283529160200191611056565b820191906000526020600020905b81548152906001019060200180831161103957829003601f168201915b5050505050908060010160009054906101000a900460ff16908060010160019054906101000a900460ff16908060020154908060030160009054906101000a900460ff16908060030160019054906101000a900460ff1690806006016040518061010001604052908160008201548152602001600182015481526020016002820154815260200160038201548152602001600482015481526020016005820154815260200160068201548152602001600782015481525050905087565b606060018054611122906140cd565b80601f016020809104026020016040519081016040528092919081815260200182805461114e906140cd565b801561119b5780601f106111705761010080835404028352916020019161119b565b820191906000526020600020905b81548152906001019060200180831161117e57829003601f168201915b5050505050905090565b6111b76111b061205e565b838361225b565b5050565b600e60205280600052604060002060009150905080546111da906140cd565b80601f0160208091040260200160405190810160405280929190818152602001828054611206906140cd565b80156112535780601f1061122857610100808354040283529160200191611253565b820191906000526020600020905b81548152906001019060200180831161123657829003601f168201915b505050505081565b6112668484846108e1565b61127a61127161205e565b858585856123ca565b50505050565b611288611f12565b6000600c60008b815260200190815260200160002060000180546112ab906140cd565b9050146112ed576040517f08c379a00000000000000000000000000000000000000000000000000000000081526004016112e490614582565b60405180910390fd5b87600c60008b815260200190815260200160002060000190816113109190614316565b5086600c60008b815260200190815260200160002060010160006101000a81548160ff0219169083600481111561134a576113496138bf565b5b021790555085600c60008b815260200190815260200160002060010160016101000a81548160ff021916908360ff16021790555084600c60008b81526020019081526020016000206002018190555083600c60008b815260200190815260200160002060030160006101000a81548160ff021916908360ff16021790555082600c60008b815260200190815260200160002060030160016101000a81548160ff02191690831515021790555081600c60008b81526020019081526020016000206004019080519060200190611420929190613169565b5080600060088110611435576114346143e8565b5b6020020151600c60008b8152602001908152602001600020600601600001819055508060016008811061146b5761146a6143e8565b5b6020020151600c60008b815260200190815260200160002060060160010181905550806002600881106114a1576114a06143e8565b5b6020020151600c60008b815260200190815260200160002060060160020181905550806003600881106114d7576114d66143e8565b5b6020020151600c60008b8152602001908152602001600020600601600301819055508060046008811061150d5761150c6143e8565b5b6020020151600c60008b81526020019081526020016000206006016004018190555080600560088110611543576115426143e8565b5b6020020151600c60008b81526020019081526020016000206006016005018190555080600660088110611579576115786143e8565b5b6020020151600c60008b815260200190815260200160002060060160060181905550806007600881106115af576115ae6143e8565b5b6020020151600c60008b815260200190815260200160002060060160070181905550600b899080600181540180825580915050600190039060005260206000200160009091909190915055505050505050505050565b606061161082611f99565b50600061161b61257b565b9050600081511161163b5760405180602001604052806000815250611666565b8061164584612592565b6040516020016116569291906145a2565b6040516020818303038152906040525b915050919050565b6000611678611f12565b6000600b80549050116116c0576040517f08c379a00000000000000000000000000000000000000000000000000000000081526004016116b790614612565b60405180910390fd5b6000600d8054905011611708576040517f08c379a00000000000000000000000000000000000000000000000000000000081526004016116ff9061467e565b60405180910390fd5b600082600f54854260014361171d91906146cd565b403a60405160200161173496959493929190614795565b6040516020818303038152906040528051906020012060405160200161175a9190614801565b6040516020818303038152906040528051906020012060001c90506000600b8054905067ffffffffffffffff8316611792919061485f565b90506000601467ffffffffffffffff604085901c166117b1919061485f565b905060006103e867ffffffffffffffff608086901c166117d1919061485f565b905060006001600d8054905067ffffffffffffffff60c088901c166117f6919061485f565b6118009190614890565b9050600060068467ffffffffffffffff161015611820576000905061187c565b600c8467ffffffffffffffff16101561183c576001905061187b565b60128467ffffffffffffffff161015611858576002905061187a565b60138467ffffffffffffffff1610156118745760039050611879565b600490505b5b5b5b60006101f48467ffffffffffffffff16101561189b57600190506118fa565b6103848467ffffffffffffffff1610156118b857600290506118f9565b6103ca8467ffffffffffffffff1610156118d557600390506118f8565b6103e68467ffffffffffffffff1610156118f257600490506118f7565b600590505b5b5b5b6000805b600b805490508110156119ce576000600b8281548110611921576119206143e8565b5b90600052602060002001549050846004811115611941576119406138bf565b5b600c600083815260200190815260200160002060010160009054906101000a900460ff166004811115611977576119766138bf565b5b1480156119ac57508360ff16600c600083815260200190815260200160002060010160019054906101000a900460ff1660ff16145b156119c05782806119bc906148cc565b9350505b5080806001019150506118fe565b5060008167ffffffffffffffff8111156119eb576119ea613333565b5b604051908082528060200260200182016040528015611a195781602001602082028036833780820191505090505b5090506000805b600b80549050811015611b10576000600b8281548110611a4357611a426143e8565b5b90600052602060002001549050866004811115611a6357611a626138bf565b5b600c600083815260200190815260200160002060010160009054906101000a900460ff166004811115611a9957611a986138bf565b5b148015611ace57508560ff16600c600083815260200190815260200160002060010160019054906101000a900460ff1660ff16145b15611b025780848481518110611ae757611ae66143e8565b5b6020026020010181815250508280611afe906148cc565b9350505b508080600101915050611a20565b506000600f5490506040518060a0016040528084868d67ffffffffffffffff16611b3a9190614914565b81518110611b4b57611b4a6143e8565b5b60200260200101518152602001600160ff1681526020018660ff1681526020016040518060a0016040528060008152602001600081526020016000815260200160008152602001600081525081526020018867ffffffffffffffff16815250601060008381526020019081526020016000206000820151816000015560208201518160010160006101000a81548160ff021916908360ff16021790555060408201518160010160016101000a81548160ff021916908360ff160217905550606082015181600201906005611c209291906131b6565b5060808201518160070155905050611c388e82612660565b600f6000815480929190611c4b906148cc565b9190505550809b50505050505050505050505092915050565b6000600560008473ffffffffffffffffffffffffffffffffffffffff1673ffffffffffffffffffffffffffffffffffffffff16815260200190815260200160002060008373ffffffffffffffffffffffffffffffffffffffff1673ffffffffffffffffffffffffffffffffffffffff16815260200190815260200160002060009054906101000a900460ff16905092915050565b611d00611f12565b6000600c60008581526020019081526020016000206000018054611d23906140cd565b905003611d65576040517f08c379a0000000000000000000000000000000000000000000000000000000008152600401611d5c906144c3565b60405180910390fd5b80600c600085815260200190815260200160002060050183604051611d8a919061451f565b90815260200160405180910390209081611da49190614316565b50505050565b611db2611f12565b600073ffffffffffffffffffffffffffffffffffffffff168173ffffffffffffffffffffffffffffffffffffffff1603611e245760006040517f1e4fbdf7000000000000000000000000000000000000000000000000000000008152600401611e1b91906135c9565b60405180910390fd5b611e2d81612195565b50565b60007f80ac58cd000000000000000000000000000000000000000000000000000000007bffffffffffffffffffffffffffffffffffffffffffffffffffffffff1916827bffffffffffffffffffffffffffffffffffffffffffffffffffffffff19161480611efb57507f5b5e139f000000000000000000000000000000000000000000000000000000007bffffffffffffffffffffffffffffffffffffffffffffffffffffffff1916827bffffffffffffffffffffffffffffffffffffffffffffffffffffffff1916145b80611f0b5750611f0a82612759565b5b9050919050565b611f1a61205e565b73ffffffffffffffffffffffffffffffffffffffff16611f38610f90565b73ffffffffffffffffffffffffffffffffffffffff1614611f9757611f5b61205e565b6040517f118cdaa7000000000000000000000000000000000000000000000000000000008152600401611f8e91906135c9565b60405180910390fd5b565b600080611fa5836127c3565b9050600073ffffffffffffffffffffffffffffffffffffffff168173ffffffffffffffffffffffffffffffffffffffff160361201857826040517f7e27328900000000000000000000000000000000000000000000000000000000815260040161200f919061376c565b60405180910390fd5b80915050919050565b60006004600083815260200190815260200160002060009054906101000a900473ffffffffffffffffffffffffffffffffffffffff169050919050565b600033905090565b6120738383836001612800565b505050565b6000806120868585856129c5565b9050600073ffffffffffffffffffffffffffffffffffffffff168173ffffffffffffffffffffffffffffffffffffffff16036120ca576120c584612bdf565b612109565b8473ffffffffffffffffffffffffffffffffffffffff168173ffffffffffffffffffffffffffffffffffffffff1614612108576121078185612c28565b5b5b600073ffffffffffffffffffffffffffffffffffffffff168573ffffffffffffffffffffffffffffffffffffffff160361214b5761214684612d13565b61218a565b8473ffffffffffffffffffffffffffffffffffffffff168173ffffffffffffffffffffffffffffffffffffffff1614612189576121888585612de4565b5b5b809150509392505050565b6000600a60009054906101000a900473ffffffffffffffffffffffffffffffffffffffff16905081600a60006101000a81548173ffffffffffffffffffffffffffffffffffffffff021916908373ffffffffffffffffffffffffffffffffffffffff1602179055508173ffffffffffffffffffffffffffffffffffffffff168173ffffffffffffffffffffffffffffffffffffffff167f8be0079c531659141344cd1fd0a4f28419497f9722a3daafe3b4186f6b6457e060405160405180910390a35050565b600073ffffffffffffffffffffffffffffffffffffffff168273ffffffffffffffffffffffffffffffffffffffff16036122cc57816040517f5b08ba180000000000000000000000000000000000000000000000000000000081526004016122c391906135c9565b60405180910390fd5b80600560008573ffffffffffffffffffffffffffffffffffffffff1673ffffffffffffffffffffffffffffffffffffffff16815260200190815260200160002060008473ffffffffffffffffffffffffffffffffffffffff1673ffffffffffffffffffffffffffffffffffffffff16815260200190815260200160002060006101000a81548160ff0219169083151502179055508173ffffffffffffffffffffffffffffffffffffffff168373ffffffffffffffffffffffffffffffffffffffff167f17307eab39ab6107e8899845ad3d59bd9653f200f220920489ca2b5937696c31836040516123bd91906132c7565b60405180910390a3505050565b60008373ffffffffffffffffffffffffffffffffffffffff163b1115612574578273ffffffffffffffffffffffffffffffffffffffff1663150b7a02868685856040518563ffffffff1660e01b8152600401612429949392919061499a565b6020604051808303816000875af192505050801561246557506040513d601f19601f8201168201806040525081019061246291906149fb565b60015b6124e9573d8060008114612495576040519150601f19603f3d011682016040523d82523d6000602084013e61249a565b606091505b5060008151036124e157836040517f64a0ae920000000000000000000000000000000000000000000000000000000081526004016124d891906135c9565b60405180910390fd5b805181602001fd5b63150b7a0260e01b7bffffffffffffffffffffffffffffffffffffffffffffffffffffffff1916817bffffffffffffffffffffffffffffffffffffffffffffffffffffffff19161461257257836040517f64a0ae9200000000000000000000000000000000000000000000000000000000815260040161256991906135c9565b60405180910390fd5b505b5050505050565b606060405180602001604052806000815250905090565b6060600060016125a184612e6f565b01905060008167ffffffffffffffff8111156125c0576125bf613333565b5b6040519080825280601f01601f1916602001820160405280156125f25781602001600182028036833780820191505090505b509050600082602001820190505b600115612655578080600190039150507f3031323334353637383961626364656600000000000000000000000000000000600a86061a8153600a858161264957612648614830565b5b04945060008503612600575b819350505050919050565b600073ffffffffffffffffffffffffffffffffffffffff168273ffffffffffffffffffffffffffffffffffffffff16036126d25760006040517f64a0ae920000000000000000000000000000000000000000000000000000000081526004016126c991906135c9565b60405180910390fd5b60006126e083836000612078565b9050600073ffffffffffffffffffffffffffffffffffffffff168173ffffffffffffffffffffffffffffffffffffffff16146127545760006040517f73c6ac6e00000000000000000000000000000000000000000000000000000000815260040161274b91906135c9565b60405180910390fd5b505050565b60007f01ffc9a7000000000000000000000000000000000000000000000000000000007bffffffffffffffffffffffffffffffffffffffffffffffffffffffff1916827bffffffffffffffffffffffffffffffffffffffffffffffffffffffff1916149050919050565b60006002600083815260200190815260200160002060009054906101000a900473ffffffffffffffffffffffffffffffffffffffff169050919050565b80806128395750600073ffffffffffffffffffffffffffffffffffffffff168273ffffffffffffffffffffffffffffffffffffffff1614155b1561296d57600061284984611f99565b9050600073ffffffffffffffffffffffffffffffffffffffff168373ffffffffffffffffffffffffffffffffffffffff16141580156128b457508273ffffffffffffffffffffffffffffffffffffffff168173ffffffffffffffffffffffffffffffffffffffff1614155b80156128c757506128c58184611c64565b155b1561290957826040517fa9fbf51f00000000000000000000000000000000000000000000000000000000815260040161290091906135c9565b60405180910390fd5b811561296b57838573ffffffffffffffffffffffffffffffffffffffff168273ffffffffffffffffffffffffffffffffffffffff167f8c5be1e5ebec7d5bd14f71427d1e84f3dd0314c0f7b2291e5b200ac8c7c3b92560405160405180910390a45b505b836004600085815260200190815260200160002060006101000a81548173ffffffffffffffffffffffffffffffffffffffff021916908373ffffffffffffffffffffffffffffffffffffffff16021790555050505050565b6000806129d1846127c3565b9050600073ffffffffffffffffffffffffffffffffffffffff168373ffffffffffffffffffffffffffffffffffffffff1614612a1357612a12818486612fc2565b5b600073ffffffffffffffffffffffffffffffffffffffff168173ffffffffffffffffffffffffffffffffffffffff1614612aa457612a55600085600080612800565b6001600360008373ffffffffffffffffffffffffffffffffffffffff1673ffffffffffffffffffffffffffffffffffffffff168152602001908152602001600020600082825403925050819055505b600073ffffffffffffffffffffffffffffffffffffffff168573ffffffffffffffffffffffffffffffffffffffff1614612b27576001600360008773ffffffffffffffffffffffffffffffffffffffff1673ffffffffffffffffffffffffffffffffffffffff168152602001908152602001600020600082825401925050819055505b846002600086815260200190815260200160002060006101000a81548173ffffffffffffffffffffffffffffffffffffffff021916908373ffffffffffffffffffffffffffffffffffffffff160217905550838573ffffffffffffffffffffffffffffffffffffffff168273ffffffffffffffffffffffffffffffffffffffff167fddf252ad1be2c89b69c2b068fc378daa952ba7f163c4a11628f55a4df523b3ef60405160405180910390a4809150509392505050565b6008805490506009600083815260200190815260200160002081905550600881908060018154018082558091505060019003906000526020600020016000909190919091505550565b6000612c3383610ec2565b90506000600760008481526020019081526020016000205490506000600660008673ffffffffffffffffffffffffffffffffffffffff1673ffffffffffffffffffffffffffffffffffffffff1681526020019081526020016000209050828214612cdf5760008160008581526020019081526020016000205490508082600085815260200190815260200160002081905550826007600083815260200190815260200160002081905550505b6007600085815260200190815260200160002060009055806000848152602001908152602001600020600090555050505050565b60006001600880549050612d2791906146cd565b9050600060096000848152602001908152602001600020549050600060088381548110612d5757612d566143e8565b5b906000526020600020015490508060088381548110612d7957612d786143e8565b5b906000526020600020018190555081600960008381526020019081526020016000208190555060096000858152602001908152602001600020600090556008805480612dc857612dc7614a28565b5b6001900381819060005260206000200160009055905550505050565b60006001612df184610ec2565b612dfb91906146cd565b905081600660008573ffffffffffffffffffffffffffffffffffffffff1673ffffffffffffffffffffffffffffffffffffffff168152602001908152602001600020600083815260200190815260200160002081905550806007600084815260200190815260200160002081905550505050565b600080600090507a184f03e93ff9f4daa797ed6e38ed64bf6a1f0100000000000000008310612ecd577a184f03e93ff9f4daa797ed6e38ed64bf6a1f0100000000000000008381612ec357612ec2614830565b5b0492506040810190505b6d04ee2d6d415b85acef81000000008310612f0a576d04ee2d6d415b85acef81000000008381612f0057612eff614830565b5b0492506020810190505b662386f26fc100008310612f3957662386f26fc100008381612f2f57612f2e614830565b5b0492506010810190505b6305f5e1008310612f62576305f5e1008381612f5857612f57614830565b5b0492506008810190505b6127108310612f87576127108381612f7d57612f7c614830565b5b0492506004810190505b60648310612faa5760648381612fa057612f9f614830565b5b0492506002810190505b600a8310612fb9576001810190505b80915050919050565b612fcd838383613086565b61308157600073ffffffffffffffffffffffffffffffffffffffff168373ffffffffffffffffffffffffffffffffffffffff160361304257806040517f7e273289000000000000000000000000000000000000000000000000000000008152600401613039919061376c565b60405180910390fd5b81816040517f177e802f00000000000000000000000000000000000000000000000000000000815260040161307892919061444e565b60405180910390fd5b505050565b60008073ffffffffffffffffffffffffffffffffffffffff168373ffffffffffffffffffffffffffffffffffffffff161415801561313e57508273ffffffffffffffffffffffffffffffffffffffff168473ffffffffffffffffffffffffffffffffffffffff1614806130ff57506130fe8484611c64565b5b8061313d57508273ffffffffffffffffffffffffffffffffffffffff1661312583612021565b73ffffffffffffffffffffffffffffffffffffffff16145b5b90509392505050565b6040518060a00160405280600590602082028036833780820191505090505090565b8280548282559060005260206000209081019282156131a5579160200282015b828111156131a4578251825591602001919060010190613189565b5b5090506131b291906131f6565b5090565b82600581019282156131e5579160200282015b828111156131e45782518255916020019190600101906131c9565b5b5090506131f291906131f6565b5090565b5b8082111561320f5760008160009055506001016131f7565b5090565b6000604051905090565b600080fd5b600080fd5b60007fffffffff0000000000000000000000000000000000000000000000000000000082169050919050565b61325c81613227565b811461326757600080fd5b50565b60008135905061327981613253565b92915050565b6000602082840312156132955761329461321d565b5b60006132a38482850161326a565b91505092915050565b60008115159050919050565b6132c1816132ac565b82525050565b60006020820190506132dc60008301846132b8565b92915050565b6000819050919050565b6132f5816132e2565b811461330057600080fd5b50565b600081359050613312816132ec565b92915050565b600080fd5b600080fd5b6000601f19601f8301169050919050565b7f4e487b7100000000000000000000000000000000000000000000000000000000600052604160045260246000fd5b61336b82613322565b810181811067ffffffffffffffff8211171561338a57613389613333565b5b80604052505050565b600061339d613213565b90506133a98282613362565b919050565b600067ffffffffffffffff8211156133c9576133c8613333565b5b6133d282613322565b9050602081019050919050565b82818337600083830152505050565b60006134016133fc846133ae565b613393565b90508281526020810184848401111561341d5761341c61331d565b5b6134288482856133df565b509392505050565b600082601f83011261344557613444613318565b5b81356134558482602086016133ee565b91505092915050565b600080604083850312156134755761347461321d565b5b600061348385828601613303565b925050602083013567ffffffffffffffff8111156134a4576134a3613222565b5b6134b085828601613430565b9150509250929050565b600081519050919050565b600082825260208201905092915050565b60005b838110156134f45780820151818401526020810190506134d9565b60008484015250505050565b600061350b826134ba565b61351581856134c5565b93506135258185602086016134d6565b61352e81613322565b840191505092915050565b600060208201905081810360008301526135538184613500565b905092915050565b6000602082840312156135715761357061321d565b5b600061357f84828501613303565b91505092915050565b600073ffffffffffffffffffffffffffffffffffffffff82169050919050565b60006135b382613588565b9050919050565b6135c3816135a8565b82525050565b60006020820190506135de60008301846135ba565b92915050565b6135ed816135a8565b81146135f857600080fd5b50565b60008135905061360a816135e4565b92915050565b600080604083850312156136275761362661321d565b5b6000613635858286016135fb565b925050602061364685828601613303565b9150509250929050565b6000602082840312156136665761366561321d565b5b6000613674848285016135fb565b91505092915050565b600081519050919050565b600082825260208201905092915050565b6000819050602082019050919050565b6136b2816132e2565b82525050565b60006136c483836136a9565b60208301905092915050565b6000602082019050919050565b60006136e88261367d565b6136f28185613688565b93506136fd83613699565b8060005b8381101561372e57815161371588826136b8565b9750613720836136d0565b925050600181019050613701565b5085935050505092915050565b6000602082019050818103600083015261375581846136dd565b905092915050565b613766816132e2565b82525050565b6000602082019050613781600083018461375d565b92915050565b6000806000606084860312156137a05761379f61321d565b5b60006137ae868287016135fb565b93505060206137bf868287016135fb565b92505060406137d086828701613303565b9150509250925092565b600060ff82169050919050565b6137f0816137da565b82525050565b600060808201905061380b600083018761375d565b61381860208301866137e7565b61382560408301856137e7565b613832606083018461375d565b95945050505050565b600060059050919050565b600081905092915050565b6000819050919050565b6000602082019050919050565b6138718161383b565b61387b8184613846565b925061388682613851565b8060005b838110156138b757815161389e87826136b8565b96506138a98361385b565b92505060018101905061388a565b505050505050565b7f4e487b7100000000000000000000000000000000000000000000000000000000600052602160045260246000fd5b600581106138ff576138fe6138bf565b5b50565b6000819050613910826138ee565b919050565b600061392082613902565b9050919050565b61393081613915565b82525050565b60006102008201905061394c600083018f61375d565b613959602083018e6137e7565b613966604083018d6137e7565b613973606083018c613868565b61398161010083018b61375d565b818103610120830152613994818a613500565b90506139a4610140830189613927565b6139b26101608301886137e7565b6139c061018083018761375d565b6139ce6101a08301866137e7565b6139dc6101c08301856132b8565b8181036101e08301526139ef81846136dd565b90509d9c50505050505050505050505050565b61010082016000820151613a1960008501826136a9565b506020820151613a2c60208501826136a9565b506040820151613a3f60408501826136a9565b506060820151613a5260608501826136a9565b506080820151613a6560808501826136a9565b5060a0820151613a7860a08501826136a9565b5060c0820151613a8b60c08501826136a9565b5060e0820151613a9e60e08501826136a9565b50505050565b60006101c0820190508181036000830152613abf818a613500565b9050613ace6020830189613927565b613adb60408301886137e7565b613ae8606083018761375d565b613af560808301866137e7565b613b0260a08301856132b8565b613b0f60c0830184613a02565b98975050505050505050565b613b24816132ac565b8114613b2f57600080fd5b50565b600081359050613b4181613b1b565b92915050565b60008060408385031215613b5e57613b5d61321d565b5b6000613b6c858286016135fb565b9250506020613b7d85828601613b32565b9150509250929050565b600067ffffffffffffffff821115613ba257613ba1613333565b5b613bab82613322565b9050602081019050919050565b6000613bcb613bc684613b87565b613393565b905082815260208101848484011115613be757613be661331d565b5b613bf28482856133df565b509392505050565b600082601f830112613c0f57613c0e613318565b5b8135613c1f848260208601613bb8565b91505092915050565b60008060008060808587031215613c4257613c4161321d565b5b6000613c50878288016135fb565b9450506020613c61878288016135fb565b9350506040613c7287828801613303565b925050606085013567ffffffffffffffff811115613c9357613c92613222565b5b613c9f87828801613bfa565b91505092959194509250565b60058110613cb857600080fd5b50565b600081359050613cca81613cab565b92915050565b613cd9816137da565b8114613ce457600080fd5b50565b600081359050613cf681613cd0565b92915050565b600067ffffffffffffffff821115613d1757613d16613333565b5b602082029050602081019050919050565b600080fd5b6000613d40613d3b84613cfc565b613393565b90508083825260208201905060208402830185811115613d6357613d62613d28565b5b835b81811015613d8c5780613d788882613303565b845260208401935050602081019050613d65565b5050509392505050565b600082601f830112613dab57613daa613318565b5b8135613dbb848260208601613d2d565b91505092915050565b600067ffffffffffffffff821115613ddf57613dde613333565b5b602082029050919050565b6000613dfd613df884613dc4565b613393565b90508060208402830185811115613e1757613e16613d28565b5b835b81811015613e405780613e2c8882613303565b845260208401935050602081019050613e19565b5050509392505050565b600082601f830112613e5f57613e5e613318565b5b6008613e6c848285613dea565b91505092915050565b60008060008060008060008060006102008a8c031215613e9857613e9761321d565b5b6000613ea68c828d01613303565b99505060208a013567ffffffffffffffff811115613ec757613ec6613222565b5b613ed38c828d01613430565b9850506040613ee48c828d01613cbb565b9750506060613ef58c828d01613ce7565b9650506080613f068c828d01613303565b95505060a0613f178c828d01613ce7565b94505060c0613f288c828d01613b32565b93505060e08a013567ffffffffffffffff811115613f4957613f48613222565b5b613f558c828d01613d96565b925050610100613f678c828d01613e4a565b9150509295985092959850929598565b60008060408385031215613f8e57613f8d61321d565b5b6000613f9c858286016135fb565b925050602083013567ffffffffffffffff811115613fbd57613fbc613222565b5b613fc985828601613430565b9150509250929050565b60008060408385031215613fea57613fe961321d565b5b6000613ff8858286016135fb565b9250506020614009858286016135fb565b9150509250929050565b60008060006060848603121561402c5761402b61321d565b5b600061403a86828701613303565b935050602084013567ffffffffffffffff81111561405b5761405a613222565b5b61406786828701613430565b925050604084013567ffffffffffffffff81111561408857614087613222565b5b61409486828701613430565b9150509250925092565b7f4e487b7100000000000000000000000000000000000000000000000000000000600052602260045260246000fd5b600060028204905060018216806140e557607f821691505b6020821081036140f8576140f761409e565b5b50919050565b7f5468657265206973206120747269626500000000000000000000000000000000600082015250565b60006141346010836134c5565b915061413f826140fe565b602082019050919050565b6000602082019050818103600083015261416381614127565b9050919050565b60008190508160005260206000209050919050565b60006020601f8301049050919050565b600082821b905092915050565b6000600883026141cc7fffffffffffffffffffffffffffffffffffffffffffffffffffffffffffffffff8261418f565b6141d6868361418f565b95508019841693508086168417925050509392505050565b6000819050919050565b600061421361420e614209846132e2565b6141ee565b6132e2565b9050919050565b6000819050919050565b61422d836141f8565b6142416142398261421a565b84845461419c565b825550505050565b600090565b614256614249565b614261818484614224565b505050565b5b818110156142855761427a60008261424e565b600181019050614267565b5050565b601f8211156142ca5761429b8161416a565b6142a48461417f565b810160208510156142b3578190505b6142c76142bf8561417f565b830182614266565b50505b505050565b600082821c905092915050565b60006142ed600019846008026142cf565b1980831691505092915050565b600061430683836142dc565b9150826002028217905092915050565b61431f826134ba565b67ffffffffffffffff81111561433857614337613333565b5b61434282546140cd565b61434d828285614289565b600060209050601f831160018114614380576000841561436e578287015190505b61437885826142fa565b8655506143e0565b601f19841661438e8661416a565b60005b828110156143b657848901518255600182019150602085019450602081019050614391565b868310156143d357848901516143cf601f8916826142dc565b8355505b6001600288020188555050505b505050505050565b7f4e487b7100000000000000000000000000000000000000000000000000000000600052603260045260246000fd5b600060608201905061442c60008301866135ba565b614439602083018561375d565b61444660408301846135ba565b949350505050565b600060408201905061446360008301856135ba565b614470602083018461375d565b9392505050565b7f4361726420646f6573206e6f7420657869737400000000000000000000000000600082015250565b60006144ad6013836134c5565b91506144b882614477565b602082019050919050565b600060208201905081810360008301526144dc816144a0565b9050919050565b600081905092915050565b60006144f9826134ba565b61450381856144e3565b93506145138185602086016134d6565b80840191505092915050565b600061452b82846144ee565b915081905092915050565b7f5468657265206973206120636172640000000000000000000000000000000000600082015250565b600061456c600f836134c5565b915061457782614536565b602082019050919050565b6000602082019050818103600083015261459b8161455f565b9050919050565b60006145ae82856144ee565b91506145ba82846144ee565b91508190509392505050565b7f4e6f20636172647320617661696c61626c650000000000000000000000000000600082015250565b60006145fc6012836134c5565b9150614607826145c6565b602082019050919050565b6000602082019050818103600083015261462b816145ef565b9050919050565b7f4e6f2074726962657320617661696c61626c6500000000000000000000000000600082015250565b60006146686013836134c5565b915061467382614632565b602082019050919050565b600060208201905081810360008301526146978161465b565b9050919050565b7f4e487b7100000000000000000000000000000000000000000000000000000000600052601160045260246000fd5b60006146d8826132e2565b91506146e3836132e2565b92508282039050818111156146fb576146fa61469e565b5b92915050565b6000819050919050565b61471c614717826132e2565b614701565b82525050565b60008160601b9050919050565b600061473a82614722565b9050919050565b600061474c8261472f565b9050919050565b61476461475f826135a8565b614741565b82525050565b6000819050919050565b6000819050919050565b61478f61478a8261476a565b614774565b82525050565b60006147a182896144ee565b91506147ad828861470b565b6020820191506147bd8287614753565b6014820191506147cd828661470b565b6020820191506147dd828561477e565b6020820191506147ed828461470b565b602082019150819050979650505050505050565b600061480d828461477e565b60208201915081905092915050565b600067ffffffffffffffff82169050919050565b7f4e487b7100000000000000000000000000000000000000000000000000000000600052601260045260246000fd5b600061486a8261481c565b91506148758361481c565b92508261488557614884614830565b5b828206905092915050565b600061489b8261481c565b91506148a68361481c565b9250828201905067ffffffffffffffff8111156148c6576148c561469e565b5b92915050565b60006148d7826132e2565b91507fffffffffffffffffffffffffffffffffffffffffffffffffffffffffffffffff82036149095761490861469e565b5b600182019050919050565b600061491f826132e2565b915061492a836132e2565b92508261493a57614939614830565b5b828206905092915050565b600081519050919050565b600082825260208201905092915050565b600061496c82614945565b6149768185614950565b93506149868185602086016134d6565b61498f81613322565b840191505092915050565b60006080820190506149af60008301876135ba565b6149bc60208301866135ba565b6149c9604083018561375d565b81810360608301526149db8184614961565b905095945050505050565b6000815190506149f581613253565b92915050565b600060208284031215614a1157614a1061321d565b5b6000614a1f848285016149e6565b91505092915050565b7f4e487b7100000000000000000000000000000000000000000000000000000000600052603160045260246000fdfea26469706673582212206c354949653765376c3665275385e4def54e65a8923c2a9dba526a85f33015d764736f6c634300081c0033",
  "linkReferences": {},
  "deployedLinkReferences": {}
}